{
  "contractName": "ZombieAttack",
  "abi": [
    {
      "anonymous": false,
      "inputs": [
        {
          "indexed": false,
          "internalType": "uint256",
          "name": "zombieId",
          "type": "uint256"
        },
        {
          "indexed": false,
          "internalType": "string",
          "name": "name",
          "type": "string"
        },
        {
          "indexed": false,
          "internalType": "uint256",
          "name": "dna",
          "type": "uint256"
        }
      ],
      "name": "NewZombie",
      "type": "event"
    },
    {
      "anonymous": false,
      "inputs": [
        {
          "indexed": true,
          "internalType": "address",
          "name": "previousOwner",
          "type": "address"
        },
        {
          "indexed": true,
          "internalType": "address",
          "name": "newOwner",
          "type": "address"
        }
      ],
      "name": "OwnershipTransferred",
      "type": "event"
    },
    {
      "inputs": [
        {
          "internalType": "uint256",
          "name": "_zombieId",
          "type": "uint256"
        },
        {
          "internalType": "uint256",
          "name": "_newDna",
          "type": "uint256"
        }
      ],
      "name": "changeDna",
      "outputs": [],
      "stateMutability": "nonpayable",
      "type": "function"
    },
    {
      "inputs": [
        {
          "internalType": "uint256",
          "name": "_zombieId",
          "type": "uint256"
        },
        {
          "internalType": "string",
          "name": "_newName",
          "type": "string"
        }
      ],
      "name": "changeName",
      "outputs": [],
      "stateMutability": "nonpayable",
      "type": "function"
    },
    {
      "inputs": [
        {
          "internalType": "string",
          "name": "_name",
          "type": "string"
        }
      ],
      "name": "createRandomZombie",
      "outputs": [],
      "stateMutability": "nonpayable",
      "type": "function"
    },
    {
      "inputs": [
        {
          "internalType": "uint256",
          "name": "_zombieId",
          "type": "uint256"
        },
        {
          "internalType": "uint256",
          "name": "_kittyId",
          "type": "uint256"
        }
      ],
      "name": "feedOnKitty",
      "outputs": [],
      "stateMutability": "nonpayable",
      "type": "function"
    },
    {
      "inputs": [
        {
          "internalType": "address",
          "name": "_owner",
          "type": "address"
        }
      ],
      "name": "getZombiesByOwner",
      "outputs": [
        {
          "internalType": "uint256[]",
          "name": "",
          "type": "uint256[]"
        }
      ],
      "stateMutability": "view",
      "type": "function"
    },
    {
      "inputs": [],
      "name": "isOwner",
      "outputs": [
        {
          "internalType": "bool",
          "name": "",
          "type": "bool"
        }
      ],
      "stateMutability": "view",
      "type": "function"
    },
    {
      "inputs": [
        {
          "internalType": "uint256",
          "name": "_zombieId",
          "type": "uint256"
        }
      ],
      "name": "levelUp",
      "outputs": [],
      "stateMutability": "payable",
      "type": "function"
    },
    {
      "inputs": [],
      "name": "owner",
      "outputs": [
        {
          "internalType": "address",
          "name": "",
          "type": "address"
        }
      ],
      "stateMutability": "view",
      "type": "function"
    },
    {
      "inputs": [],
      "name": "renounceOwnership",
      "outputs": [],
      "stateMutability": "nonpayable",
      "type": "function"
    },
    {
      "inputs": [
        {
          "internalType": "address",
          "name": "_address",
          "type": "address"
        }
      ],
      "name": "setKittyContractAddress",
      "outputs": [],
      "stateMutability": "nonpayable",
      "type": "function"
    },
    {
      "inputs": [
        {
          "internalType": "uint256",
          "name": "_fee",
          "type": "uint256"
        }
      ],
      "name": "setLevelUpFee",
      "outputs": [],
      "stateMutability": "nonpayable",
      "type": "function"
    },
    {
      "inputs": [
        {
          "internalType": "address",
          "name": "newOwner",
          "type": "address"
        }
      ],
      "name": "transferOwnership",
      "outputs": [],
      "stateMutability": "nonpayable",
      "type": "function"
    },
    {
      "inputs": [],
      "name": "withdraw",
      "outputs": [],
      "stateMutability": "nonpayable",
      "type": "function"
    },
    {
      "inputs": [
        {
          "internalType": "uint256",
          "name": "",
          "type": "uint256"
        }
      ],
      "name": "zombieToOwner",
      "outputs": [
        {
          "internalType": "address",
          "name": "",
          "type": "address"
        }
      ],
      "stateMutability": "view",
      "type": "function"
    },
    {
      "inputs": [
        {
          "internalType": "uint256",
          "name": "",
          "type": "uint256"
        }
      ],
      "name": "zombies",
      "outputs": [
        {
          "internalType": "string",
          "name": "name",
          "type": "string"
        },
        {
          "internalType": "uint256",
          "name": "dna",
          "type": "uint256"
        },
        {
          "internalType": "uint32",
          "name": "level",
          "type": "uint32"
        },
        {
          "internalType": "uint32",
          "name": "readyTime",
          "type": "uint32"
        },
        {
          "internalType": "uint16",
          "name": "winCount",
          "type": "uint16"
        },
        {
          "internalType": "uint16",
          "name": "lossCount",
          "type": "uint16"
        }
      ],
      "stateMutability": "view",
      "type": "function"
    },
    {
      "inputs": [
        {
          "internalType": "uint256",
          "name": "_zombieId",
          "type": "uint256"
        },
        {
          "internalType": "uint256",
          "name": "_targetId",
          "type": "uint256"
        }
      ],
      "name": "attack",
      "outputs": [],
      "stateMutability": "nonpayable",
      "type": "function"
    }
  ],
  "bytecode": "0x60806040526010600155600154600a6200001a919062000289565b6002556201518060035566038d7ea4c680006008555f6009556046600a5534801562000044575f80fd5b50335f806101000a81548173ffffffffffffffffffffffffffffffffffffffff021916908373ffffffffffffffffffffffffffffffffffffffff1602179055505f8054906101000a900473ffffffffffffffffffffffffffffffffffffffff1673ffffffffffffffffffffffffffffffffffffffff165f73ffffffffffffffffffffffffffffffffffffffff167f8be0079c531659141344cd1fd0a4f28419497f9722a3daafe3b4186f6b6457e060405160405180910390a3620002d9565b7f4e487b71000000000000000000000000000000000000000000000000000000005f52601160045260245ffd5b5f8160011c9050919050565b5f808291508390505b60018511156200018d5780860481111562000165576200016462000103565b5b6001851615620001755780820291505b8081029050620001858562000130565b945062000145565b94509492505050565b5f82620001a7576001905062000279565b81620001b6575f905062000279565b8160018114620001cf5760028114620001da5762000210565b600191505062000279565b60ff841115620001ef57620001ee62000103565b5b8360020a91508482111562000209576200020862000103565b5b5062000279565b5060208310610133831016604e8410600b84101617156200024a5782820a90508381111562000244576200024362000103565b5b62000279565b6200025984848460016200013c565b9250905081840481111562000273576200027262000103565b5b81810290505b9392505050565b5f819050919050565b5f620002958262000280565b9150620002a28362000280565b9250620002d17fffffffffffffffffffffffffffffffffffffffffffffffffffffffffffffffff848462000196565b905092915050565b61247780620002e75f395ff3fe6080604052600436106100f2575f3560e01c8063715018a611610089578063c39cbef111610058578063c39cbef1146102eb578063ccf670f814610313578063e1fa76381461033b578063f2fde38b14610363576100f2565b8063715018a6146102595780637bff0a011461026f5780638da5cb5b146102975780638f32d59b146102c1576100f2565b80634412e104116100c55780634412e10414610191578063528b7b8f146101cd5780635f4623f1146102095780635faf288014610231576100f2565b80630ce90ec2146100f657806317a7f4cc146101125780632052465e1461013a5780633ccfd60b1461017b575b5f80fd5b610110600480360381019061010b91906115a2565b61038b565b005b34801561011d575f80fd5b50610138600480360381019061013391906115cd565b6103fc565b005b348015610145575f80fd5b50610160600480360381019061015b91906115a2565b610516565b604051610172969594939291906116de565b60405180910390f35b348015610186575f80fd5b5061018f61061e565b005b34801561019c575f80fd5b506101b760048036038101906101b2919061179e565b6106ea565b6040516101c49190611880565b60405180910390f35b3480156101d8575f80fd5b506101f360048036038101906101ee91906115a2565b610835565b60405161020091906118af565b60405180910390f35b348015610214575f80fd5b5061022f600480360381019061022a919061179e565b610865565b005b34801561023c575f80fd5b50610257600480360381019061025291906115cd565b6108b8565b005b348015610264575f80fd5b5061026d610996565b005b34801561027a575f80fd5b50610295600480360381019061029091906119f4565b610a60565b005b3480156102a2575f80fd5b506102ab610adc565b6040516102b891906118af565b60405180910390f35b3480156102cc575f80fd5b506102d5610b03565b6040516102e29190611a55565b60405180910390f35b3480156102f6575f80fd5b50610311600480360381019061030c9190611acb565b610b58565b005b34801561031e575f80fd5b50610339600480360381019061033491906115a2565b610c41565b005b348015610346575f80fd5b50610361600480360381019061035c91906115cd565b610c5b565b005b34801561036e575f80fd5b506103896004803603810190610384919061179e565b610f44565b005b6008543414610398575f80fd5b600481815481106103ac576103ab611b28565b5b905f5260205f2090600302016002015f81819054906101000a900463ffffffff16809291906103da90611b82565b91906101000a81548163ffffffff021916908363ffffffff1602179055505050565b5f60075f9054906101000a900473ffffffffffffffffffffffffffffffffffffffff1673ffffffffffffffffffffffffffffffffffffffff1663e98b7f4d836040518263ffffffff1660e01b81526004016104579190611bad565b61014060405180830381865afa158015610473573d5f803e3d5ffd5b505050506040513d601f19601f820116820180604052508101906104979190611c04565b9091929394959697985090919293949596975090919293949596509091929394955090919293945090919293509091925090915090508091505061051183826040518060400160405280600581526020017f6b69747479000000000000000000000000000000000000000000000000000000815250610f60565b505050565b60048181548110610525575f80fd5b905f5260205f2090600302015f91509050805f01805461054490611d0a565b80601f016020809104026020016040519081016040528092919081815260200182805461057090611d0a565b80156105bb5780601f10610592576101008083540402835291602001916105bb565b820191905f5260205f20905b81548152906001019060200180831161059e57829003601f168201915b505050505090806001015490806002015f9054906101000a900463ffffffff16908060020160049054906101000a900463ffffffff16908060020160089054906101000a900461ffff169080600201600a9054906101000a900461ffff16905086565b610626610b03565b61062e575f80fd5b5f610637610adc565b90505f4790505f8273ffffffffffffffffffffffffffffffffffffffff168260405161066290611d67565b5f6040518083038185875af1925050503d805f811461069c576040519150601f19603f3d011682016040523d82523d5f602084013e6106a1565b606091505b50509050806106e5576040517f08c379a00000000000000000000000000000000000000000000000000000000081526004016106dc90611dc5565b60405180910390fd5b505050565b60605f60065f8473ffffffffffffffffffffffffffffffffffffffff1673ffffffffffffffffffffffffffffffffffffffff1681526020019081526020015f205467ffffffffffffffff811115610744576107436118d0565b5b6040519080825280602002602001820160405280156107725781602001602082028036833780820191505090505b5090505f805b60048054905081101561082a578473ffffffffffffffffffffffffffffffffffffffff1660055f8381526020019081526020015f205f9054906101000a900473ffffffffffffffffffffffffffffffffffffffff1673ffffffffffffffffffffffffffffffffffffffff160361081757808383815181106107fc576107fb611b28565b5b602002602001018181525050818061081390611de3565b9250505b808061082290611de3565b915050610778565b508192505050919050565b6005602052805f5260405f205f915054906101000a900473ffffffffffffffffffffffffffffffffffffffff1681565b61086d610b03565b610875575f80fd5b8060075f6101000a81548173ffffffffffffffffffffffffffffffffffffffff021916908373ffffffffffffffffffffffffffffffffffffffff16021790555050565b60148281600482815481106108d0576108cf611b28565b5b905f5260205f2090600302016002015f9054906101000a900463ffffffff1663ffffffff1610156108ff575f80fd5b8360055f8281526020019081526020015f205f9054906101000a900473ffffffffffffffffffffffffffffffffffffffff1673ffffffffffffffffffffffffffffffffffffffff163373ffffffffffffffffffffffffffffffffffffffff1614610967575f80fd5b836004868154811061097c5761097b611b28565b5b905f5260205f209060030201600101819055505050505050565b61099e610b03565b6109a6575f80fd5b5f73ffffffffffffffffffffffffffffffffffffffff165f8054906101000a900473ffffffffffffffffffffffffffffffffffffffff1673ffffffffffffffffffffffffffffffffffffffff167f8be0079c531659141344cd1fd0a4f28419497f9722a3daafe3b4186f6b6457e060405160405180910390a35f805f6101000a81548173ffffffffffffffffffffffffffffffffffffffff021916908373ffffffffffffffffffffffffffffffffffffffff160217905550565b5f60065f3373ffffffffffffffffffffffffffffffffffffffff1673ffffffffffffffffffffffffffffffffffffffff1681526020019081526020015f205414610aa8575f80fd5b5f610ab2826110f3565b9050606481610ac19190611e57565b81610acc9190611e87565b9050610ad88282611136565b5050565b5f805f9054906101000a900473ffffffffffffffffffffffffffffffffffffffff16905090565b5f805f9054906101000a900473ffffffffffffffffffffffffffffffffffffffff1673ffffffffffffffffffffffffffffffffffffffff163373ffffffffffffffffffffffffffffffffffffffff1614905090565b6002838160048281548110610b7057610b6f611b28565b5b905f5260205f2090600302016002015f9054906101000a900463ffffffff1663ffffffff161015610b9f575f80fd5b8460055f8281526020019081526020015f205f9054906101000a900473ffffffffffffffffffffffffffffffffffffffff1673ffffffffffffffffffffffffffffffffffffffff163373ffffffffffffffffffffffffffffffffffffffff1614610c07575f80fd5b848460048881548110610c1d57610c1c611b28565b5b905f5260205f2090600302015f019182610c38929190612061565b50505050505050565b610c49610b03565b610c51575f80fd5b8060088190555050565b8160055f8281526020019081526020015f205f9054906101000a900473ffffffffffffffffffffffffffffffffffffffff1673ffffffffffffffffffffffffffffffffffffffff163373ffffffffffffffffffffffffffffffffffffffff1614610cc3575f80fd5b5f60048481548110610cd857610cd7611b28565b5b905f5260205f20906003020190505f60048481548110610cfb57610cfa611b28565b5b905f5260205f20906003020190505f610d14606461138a565b9050600a548111610e7e5782600201600881819054906101000a900461ffff1680929190610d419061212e565b91906101000a81548161ffff021916908361ffff1602179055508360020160086101000a81548161ffff021916908361ffff160217905550826002015f81819054906101000a900463ffffffff1680929190610d9c90611b82565b91906101000a81548163ffffffff021916908363ffffffff160217905550836002015f6101000a81548163ffffffff021916908363ffffffff16021790555081600201600a81819054906101000a900461ffff1680929190610dfd9061212e565b91906101000a81548161ffff021916908361ffff16021790555082600201600a6101000a81548161ffff021916908361ffff160217905550610e798683600101546040518060400160405280600681526020017f7a6f6d6269650000000000000000000000000000000000000000000000000000815250610f60565b610f3c565b82600201600a81819054906101000a900461ffff1680929190610ea09061212e565b91906101000a81548161ffff021916908361ffff16021790555083600201600a6101000a81548161ffff021916908361ffff16021790555081600201600881819054906101000a900461ffff1680929190610efa9061212e565b91906101000a81548161ffff021916908361ffff1602179055508260020160086101000a81548161ffff021916908361ffff160217905550610f3b836113e8565b5b505050505050565b610f4c610b03565b610f54575f80fd5b610f5d8161141b565b50565b8260055f8281526020019081526020015f205f9054906101000a900473ffffffffffffffffffffffffffffffffffffffff1673ffffffffffffffffffffffffffffffffffffffff163373ffffffffffffffffffffffffffffffffffffffff1614610fc8575f80fd5b5f60048581548110610fdd57610fdc611b28565b5b905f5260205f2090600302019050610ff48161150d565b610ffc575f80fd5b6002548461100a9190611e57565b93505f600285836001015461101f9190612157565b611029919061218a565b905060405160200161103a9061220e565b60405160208183030381529060405280519060200120846040516020016110619190612252565b60405160208183030381529060405280519060200120036110a357606360648261108b9190611e57565b826110969190611e87565b6110a09190612157565b90505b6110e26040518060400160405280600681526020017f4e6f4e616d65000000000000000000000000000000000000000000000000000081525082611136565b6110eb826113e8565b505050505050565b5f80826040516020016111069190612252565b604051602081830303815290604052805190602001205f1c90506002548161112e9190611e57565b915050919050565b5f600480549050905060046040518060c00160405280858152602001848152602001600163ffffffff168152602001600354426111739190612157565b63ffffffff1681526020015f61ffff1681526020015f61ffff16815250908060018154018082558091505060019003905f5260205f2090600302015f909190919091505f820151815f0190816111c99190612268565b50602082015181600101556040820151816002015f6101000a81548163ffffffff021916908363ffffffff16021790555060608201518160020160046101000a81548163ffffffff021916908363ffffffff16021790555060808201518160020160086101000a81548161ffff021916908361ffff16021790555060a082015181600201600a6101000a81548161ffff021916908361ffff16021790555050503360055f8381526020019081526020015f205f6101000a81548173ffffffffffffffffffffffffffffffffffffffff021916908373ffffffffffffffffffffffffffffffffffffffff160217905550611309600160065f3373ffffffffffffffffffffffffffffffffffffffff1673ffffffffffffffffffffffffffffffffffffffff1681526020019081526020015f205461153390919063ffffffff16565b60065f3373ffffffffffffffffffffffffffffffffffffffff1673ffffffffffffffffffffffffffffffffffffffff1681526020019081526020015f20819055507f88f026aacbbecc90c18411df4b1185fd8d9be2470f1962f192bf84a27d0704b781848460405161137d93929190612337565b60405180910390a1505050565b5f60095f81548092919061139d90611de3565b919050556009819055508142336009546040516020016113bf939291906123d8565b604051602081830303815290604052805190602001205f1c6113e19190611e57565b9050919050565b600354426113f69190612157565b8160020160046101000a81548163ffffffff021916908363ffffffff16021790555050565b5f73ffffffffffffffffffffffffffffffffffffffff168173ffffffffffffffffffffffffffffffffffffffff1603611452575f80fd5b8073ffffffffffffffffffffffffffffffffffffffff165f8054906101000a900473ffffffffffffffffffffffffffffffffffffffff1673ffffffffffffffffffffffffffffffffffffffff167f8be0079c531659141344cd1fd0a4f28419497f9722a3daafe3b4186f6b6457e060405160405180910390a3805f806101000a81548173ffffffffffffffffffffffffffffffffffffffff021916908373ffffffffffffffffffffffffffffffffffffffff16021790555050565b5f428260020160049054906101000a900463ffffffff1663ffffffff1611159050919050565b5f8082846115419190612157565b90508381101561155457611553612414565b5b8091505092915050565b5f604051905090565b5f80fd5b5f80fd5b5f819050919050565b6115818161156f565b811461158b575f80fd5b50565b5f8135905061159c81611578565b92915050565b5f602082840312156115b7576115b6611567565b5b5f6115c48482850161158e565b91505092915050565b5f80604083850312156115e3576115e2611567565b5b5f6115f08582860161158e565b92505060206116018582860161158e565b9150509250929050565b5f81519050919050565b5f82825260208201905092915050565b5f5b83811015611642578082015181840152602081019050611627565b5f8484015250505050565b5f601f19601f8301169050919050565b5f6116678261160b565b6116718185611615565b9350611681818560208601611625565b61168a8161164d565b840191505092915050565b61169e8161156f565b82525050565b5f63ffffffff82169050919050565b6116bc816116a4565b82525050565b5f61ffff82169050919050565b6116d8816116c2565b82525050565b5f60c0820190508181035f8301526116f6818961165d565b90506117056020830188611695565b61171260408301876116b3565b61171f60608301866116b3565b61172c60808301856116cf565b61173960a08301846116cf565b979650505050505050565b5f73ffffffffffffffffffffffffffffffffffffffff82169050919050565b5f61176d82611744565b9050919050565b61177d81611763565b8114611787575f80fd5b50565b5f8135905061179881611774565b92915050565b5f602082840312156117b3576117b2611567565b5b5f6117c08482850161178a565b91505092915050565b5f81519050919050565b5f82825260208201905092915050565b5f819050602082019050919050565b6117fb8161156f565b82525050565b5f61180c83836117f2565b60208301905092915050565b5f602082019050919050565b5f61182e826117c9565b61183881856117d3565b9350611843836117e3565b805f5b8381101561187357815161185a8882611801565b975061186583611818565b925050600181019050611846565b5085935050505092915050565b5f6020820190508181035f8301526118988184611824565b905092915050565b6118a981611763565b82525050565b5f6020820190506118c25f8301846118a0565b92915050565b5f80fd5b5f80fd5b7f4e487b71000000000000000000000000000000000000000000000000000000005f52604160045260245ffd5b6119068261164d565b810181811067ffffffffffffffff82111715611925576119246118d0565b5b80604052505050565b5f61193761155e565b905061194382826118fd565b919050565b5f67ffffffffffffffff821115611962576119616118d0565b5b61196b8261164d565b9050602081019050919050565b828183375f83830152505050565b5f61199861199384611948565b61192e565b9050828152602081018484840111156119b4576119b36118cc565b5b6119bf848285611978565b509392505050565b5f82601f8301126119db576119da6118c8565b5b81356119eb848260208601611986565b91505092915050565b5f60208284031215611a0957611a08611567565b5b5f82013567ffffffffffffffff811115611a2657611a2561156b565b5b611a32848285016119c7565b91505092915050565b5f8115159050919050565b611a4f81611a3b565b82525050565b5f602082019050611a685f830184611a46565b92915050565b5f80fd5b5f80fd5b5f8083601f840112611a8b57611a8a6118c8565b5b8235905067ffffffffffffffff811115611aa857611aa7611a6e565b5b602083019150836001820283011115611ac457611ac3611a72565b5b9250929050565b5f805f60408486031215611ae257611ae1611567565b5b5f611aef8682870161158e565b935050602084013567ffffffffffffffff811115611b1057611b0f61156b565b5b611b1c86828701611a76565b92509250509250925092565b7f4e487b71000000000000000000000000000000000000000000000000000000005f52603260045260245ffd5b7f4e487b71000000000000000000000000000000000000000000000000000000005f52601160045260245ffd5b5f611b8c826116a4565b915063ffffffff8203611ba257611ba1611b55565b5b600182019050919050565b5f602082019050611bc05f830184611695565b92915050565b611bcf81611a3b565b8114611bd9575f80fd5b50565b5f81519050611bea81611bc6565b92915050565b5f81519050611bfe81611578565b92915050565b5f805f805f805f805f806101408b8d031215611c2357611c22611567565b5b5f611c308d828e01611bdc565b9a50506020611c418d828e01611bdc565b9950506040611c528d828e01611bf0565b9850506060611c638d828e01611bf0565b9750506080611c748d828e01611bf0565b96505060a0611c858d828e01611bf0565b95505060c0611c968d828e01611bf0565b94505060e0611ca78d828e01611bf0565b935050610100611cb98d828e01611bf0565b925050610120611ccb8d828e01611bf0565b9150509295989b9194979a5092959850565b7f4e487b71000000000000000000000000000000000000000000000000000000005f52602260045260245ffd5b5f6002820490506001821680611d2157607f821691505b602082108103611d3457611d33611cdd565b5b50919050565b5f81905092915050565b50565b5f611d525f83611d3a565b9150611d5d82611d44565b5f82019050919050565b5f611d7182611d47565b9150819050919050565b7f5472616e73666572206661696c65642e000000000000000000000000000000005f82015250565b5f611daf601083611615565b9150611dba82611d7b565b602082019050919050565b5f6020820190508181035f830152611ddc81611da3565b9050919050565b5f611ded8261156f565b91507fffffffffffffffffffffffffffffffffffffffffffffffffffffffffffffffff8203611e1f57611e1e611b55565b5b600182019050919050565b7f4e487b71000000000000000000000000000000000000000000000000000000005f52601260045260245ffd5b5f611e618261156f565b9150611e6c8361156f565b925082611e7c57611e7b611e2a565b5b828206905092915050565b5f611e918261156f565b9150611e9c8361156f565b9250828203905081811115611eb457611eb3611b55565b5b92915050565b5f82905092915050565b5f819050815f5260205f209050919050565b5f6020601f8301049050919050565b5f82821b905092915050565b5f60088302611f207fffffffffffffffffffffffffffffffffffffffffffffffffffffffffffffffff82611ee5565b611f2a8683611ee5565b95508019841693508086168417925050509392505050565b5f819050919050565b5f611f65611f60611f5b8461156f565b611f42565b61156f565b9050919050565b5f819050919050565b611f7e83611f4b565b611f92611f8a82611f6c565b848454611ef1565b825550505050565b5f90565b611fa6611f9a565b611fb1818484611f75565b505050565b5b81811015611fd457611fc95f82611f9e565b600181019050611fb7565b5050565b601f82111561201957611fea81611ec4565b611ff384611ed6565b81016020851015612002578190505b61201661200e85611ed6565b830182611fb6565b50505b505050565b5f82821c905092915050565b5f6120395f198460080261201e565b1980831691505092915050565b5f612051838361202a565b9150826002028217905092915050565b61206b8383611eba565b67ffffffffffffffff811115612084576120836118d0565b5b61208e8254611d0a565b612099828285611fd8565b5f601f8311600181146120c6575f84156120b4578287013590505b6120be8582612046565b865550612125565b601f1984166120d486611ec4565b5f5b828110156120fb578489013582556001820191506020850194506020810190506120d6565b868310156121185784890135612114601f89168261202a565b8355505b6001600288020188555050505b50505050505050565b5f612138826116c2565b915061ffff820361214c5761214b611b55565b5b600182019050919050565b5f6121618261156f565b915061216c8361156f565b925082820190508082111561218457612183611b55565b5b92915050565b5f6121948261156f565b915061219f8361156f565b9250826121af576121ae611e2a565b5b828204905092915050565b5f81905092915050565b7f6b697474790000000000000000000000000000000000000000000000000000005f82015250565b5f6121f86005836121ba565b9150612203826121c4565b600582019050919050565b5f612218826121ec565b9150819050919050565b5f61222c8261160b565b61223681856121ba565b9350612246818560208601611625565b80840191505092915050565b5f61225d8284612222565b915081905092915050565b6122718261160b565b67ffffffffffffffff81111561228a576122896118d0565b5b6122948254611d0a565b61229f828285611fd8565b5f60209050601f8311600181146122d0575f84156122be578287015190505b6122c88582612046565b86555061232f565b601f1984166122de86611ec4565b5f5b82811015612305578489015182556001820191506020850194506020810190506122e0565b86831015612322578489015161231e601f89168261202a565b8355505b6001600288020188555050505b505050505050565b5f60608201905061234a5f830186611695565b818103602083015261235c818561165d565b905061236b6040830184611695565b949350505050565b5f819050919050565b61238d6123888261156f565b612373565b82525050565b5f8160601b9050919050565b5f6123a982612393565b9050919050565b5f6123ba8261239f565b9050919050565b6123d26123cd82611763565b6123b0565b82525050565b5f6123e3828661237c565b6020820191506123f382856123c1565b601482019150612403828461237c565b602082019150819050949350505050565b7f4e487b71000000000000000000000000000000000000000000000000000000005f52600160045260245ffdfea26469706673582212206f95e24c59ff4fc47d7608893d5b35ec411cbe02d6b4894835978103fb277eb064736f6c63430008150033",
  "immutableReferences": {},
  "source": "// SPDX-License-Identifier: MIT \r\npragma solidity 0.8.21;\r\n\r\nimport \"./zombiehelper.sol\";\r\n\r\ncontract ZombieAttack is ZombieHelper {\r\n  uint randNonce = 0;\r\n  uint attackVictoryProbability = 70;\r\n\r\n  function randMod(uint _modulus) internal returns(uint) {\r\n    randNonce = randNonce++;\r\n    return uint(keccak256(abi.encodePacked(block.timestamp, msg.sender, randNonce))) % _modulus;\r\n  }\r\n\r\n  function attack(uint _zombieId, uint _targetId) external onlyOwnerOf(_zombieId) {\r\n    Zombie storage myZombie = zombies[_zombieId];\r\n    Zombie storage enemyZombie = zombies[_targetId];\r\n    uint rand = randMod(100);\r\n    if (rand <= attackVictoryProbability) {\r\n      myZombie.winCount = myZombie.winCount++;\r\n      myZombie.level = myZombie.level++;\r\n      enemyZombie.lossCount = enemyZombie.lossCount++;\r\n      feedAndMultiply(_zombieId, enemyZombie.dna, \"zombie\");\r\n    } else {\r\n      myZombie.lossCount = myZombie.lossCount++;\r\n      enemyZombie.winCount = enemyZombie.winCount++;\r\n      _triggerCooldown(myZombie);\r\n    }\r\n  }\r\n}\r\n",
  "sourcePath": "D:\\Docs\\Web3 Project\\contracts\\zombieattack.sol",
  "compiler": {
    "name": "solc",
    "version": "0.8.21+commit.d9974bed.Emscripten.clang"
  },
  "schemaVersion": "3.4.16",
  "updatedAt": "2024-05-07T10:24:52.956Z",
  "devdoc": {
    "kind": "dev",
    "methods": {
      "isOwner()": {
        "returns": {
          "_0": "true if `msg.sender` is the owner of the contract."
        }
      },
      "owner()": {
        "returns": {
          "_0": "the address of the owner."
        }
      },
      "renounceOwnership()": {
        "details": "Allows the current owner to relinquish control of the contract."
      },
      "transferOwnership(address)": {
        "details": "Allows the current owner to transfer control of the contract to a newOwner.",
        "params": {
          "newOwner": "The address to transfer ownership to."
        }
      }
    },
    "version": 1
  },
  "userdoc": {
    "kind": "user",
    "methods": {
      "renounceOwnership()": {
        "notice": "Renouncing to ownership will leave the contract without an owner. It will not be possible to call the functions with the `onlyOwner` modifier anymore."
      }
    },
    "version": 1
  }
}